:1000000084EF00F00D50016A0C5C03E20CC000F0BC
:100010000CD0006A080E0E6E0C3600360D50005CD7
:10002000D8B0006E01360E2EF7D71200200E07A8AA
:10003000300E086E06C000F006AE08D0001E002A82
:1000400000C006F02D0E086E078E0780015006C016
:100050000CF0640E0D6ED6DF00C006F0300E0124E9
:10006000096E06C00CF00A0E0D6ECCDF300E0024B7
:100070000B6E300E01240A6E08C000F0300E095CD1
:1000800004E0078207BE078412D008C009F0200EE2
:10009000086E300E0A5C04E0078007BE078207D0B6
:1000A000D8A4078004E109C00AF0200E096E07B445
:1000B00005D007B207D007B009D00CD008509EA8D1
:1000C000FED7AD6E09509EA8FED7AD6E0A509EA811
:1000D000FED7AD6E0B509EA8FED7AD6EBDEF00F003
:1000E000EA6A070EE96EEF500DE0060E016E006A37
:1000F000002EFED7012EFBD77B0E006E002EFED702
:10010000EF2EF3D7C6EF00F0F86AD09EB886080E3F
:10011000AF6E020EB06EA60EAC6E900EAB6EC150FE
:10012000C00B0F09C16E070EB46EC150C00B3F0962
:10013000C16EB16AC150C00B0F09C16EC2909698D2
:10014000D190800ED56EA50ECD6E600E0609CA6EDA
:10015000F10ECB6E070EB46E9250926E100E006EC2
:10016000002EFED70000B450A19CB56A050E056EA6
:1001700005C006F0180E076E59D70A0E9EA8FED7C6
:10018000AD6E040E066EFA0E076EAAD7062EFBD7CA
:04019000EDD70300A4
:020000040030CA
:0E0000003FCC391E0007A1000FC00FE00F40DB
:00000001FF
;PIC18F4550
;CRC=0078  CREATED="02-Haz-24 17:27"
